:020000040000FA
:100000008316103085000F3086008312850186012B
:1000100006180C28A4201A2086181028A4202620B0
:1000200006191428A420502086190828A4207A2014
:10003000A4200828F03086001F308500BC20003046
:10004000860010308500BC201A2808003030860059
:1000500013308500C0200030860010308500C0209D
:100060003030860013308500C0200030860010300C
:100070008500BE20C03086001C308500C0200030C6
:10008000860010308500C020C03086001C308500FE
:10009000C0200030860010308500BE2026280800D1
:1000A0001030860011308500BE20003086001030F0
:1000B0008500C0202030860012308500BE20003030
:1000C000860010308500C020403086001430850046
:1000D000BE200030860010308500C02080308600B1
:1000E00018308500BE200030860010308500C0200A
:1000F000502808003030860010308500BE200030C7
:10010000860010308500C020C03086001030850089
:10011000BE200030860010308500C02000308600F0
:1001200013308500BE200030860010308500C020CE
:10013000003086001C308500BE2000308600103064
:100140008500C0207A280800061CA428861CA42844
:10015000061DA428861DA4280800061C0C28861C41
:100160001028061D1428861D08280800C830C1283C
:100170006430C1283230C1281430C1280A30C12867
:1001800005308E001E308D00DE308C00AD208C0BD3
:0C019000C6288D0BC4288E0BC228080066
:02400E00F13F80
:00000001FF
